{
    "contractName": "ProvinceManager",
    "abi": [
        {
            "anonymous": false,
            "inputs": [
                {
                    "indexed": false,
                    "internalType": "address",
                    "name": "previousAdmin",
                    "type": "address"
                },
                {
                    "indexed": false,
                    "internalType": "address",
                    "name": "newAdmin",
                    "type": "address"
                }
            ],
            "name": "AdminChanged",
            "type": "event"
        },
        {
            "anonymous": false,
            "inputs": [
                {
                    "indexed": true,
                    "internalType": "address",
                    "name": "owner",
                    "type": "address"
                },
                {
                    "indexed": true,
                    "internalType": "address",
                    "name": "approved",
                    "type": "address"
                },
                {
                    "indexed": true,
                    "internalType": "uint256",
                    "name": "tokenId",
                    "type": "uint256"
                }
            ],
            "name": "Approval",
            "type": "event"
        },
        {
            "anonymous": false,
            "inputs": [
                {
                    "indexed": true,
                    "internalType": "address",
                    "name": "owner",
                    "type": "address"
                },
                {
                    "indexed": true,
                    "internalType": "address",
                    "name": "operator",
                    "type": "address"
                },
                {
                    "indexed": false,
                    "internalType": "bool",
                    "name": "approved",
                    "type": "bool"
                }
            ],
            "name": "ApprovalForAll",
            "type": "event"
        },
        {
            "anonymous": false,
            "inputs": [
                {
                    "indexed": true,
                    "internalType": "address",
                    "name": "beacon",
                    "type": "address"
                }
            ],
            "name": "BeaconUpgraded",
            "type": "event"
        },
        {
            "anonymous": false,
            "inputs": [
                {
                    "indexed": false,
                    "internalType": "uint8",
                    "name": "version",
                    "type": "uint8"
                }
            ],
            "name": "Initialized",
            "type": "event"
        },
        {
            "anonymous": false,
            "inputs": [
                {
                    "indexed": false,
                    "internalType": "address",
                    "name": "account",
                    "type": "address"
                }
            ],
            "name": "Paused",
            "type": "event"
        },
        {
            "anonymous": false,
            "inputs": [
                {
                    "indexed": true,
                    "internalType": "address",
                    "name": "from",
                    "type": "address"
                },
                {
                    "indexed": true,
                    "internalType": "address",
                    "name": "to",
                    "type": "address"
                },
                {
                    "indexed": true,
                    "internalType": "uint256",
                    "name": "tokenId",
                    "type": "uint256"
                }
            ],
            "name": "Transfer",
            "type": "event"
        },
        {
            "anonymous": false,
            "inputs": [
                {
                    "indexed": false,
                    "internalType": "address",
                    "name": "account",
                    "type": "address"
                }
            ],
            "name": "Unpaused",
            "type": "event"
        },
        {
            "anonymous": false,
            "inputs": [
                {
                    "indexed": true,
                    "internalType": "address",
                    "name": "implementation",
                    "type": "address"
                }
            ],
            "name": "Upgraded",
            "type": "event"
        },
        {
            "inputs": [],
            "name": "DEFAULT_ADMIN_ROLE",
            "outputs": [
                {
                    "internalType": "bytes32",
                    "name": "",
                    "type": "bytes32"
                }
            ],
            "stateMutability": "view",
            "type": "function"
        },
        {
            "inputs": [],
            "name": "EVENT_ROLE",
            "outputs": [
                {
                    "internalType": "bytes32",
                    "name": "",
                    "type": "bytes32"
                }
            ],
            "stateMutability": "view",
            "type": "function"
        },
        {
            "inputs": [],
            "name": "MINTER_ROLE",
            "outputs": [
                {
                    "internalType": "bytes32",
                    "name": "",
                    "type": "bytes32"
                }
            ],
            "stateMutability": "view",
            "type": "function"
        },
        {
            "inputs": [],
            "name": "OWNER_ROLE",
            "outputs": [
                {
                    "internalType": "bytes32",
                    "name": "",
                    "type": "bytes32"
                }
            ],
            "stateMutability": "view",
            "type": "function"
        },
        {
            "inputs": [],
            "name": "PAUSER_ROLE",
            "outputs": [
                {
                    "internalType": "bytes32",
                    "name": "",
                    "type": "bytes32"
                }
            ],
            "stateMutability": "view",
            "type": "function"
        },
        {
            "inputs": [],
            "name": "PROVINCE_ROLE",
            "outputs": [
                {
                    "internalType": "bytes32",
                    "name": "",
                    "type": "bytes32"
                }
            ],
            "stateMutability": "view",
            "type": "function"
        },
        {
            "inputs": [],
            "name": "TEMPORARY_MINTER_ROLE",
            "outputs": [
                {
                    "internalType": "bytes32",
                    "name": "",
                    "type": "bytes32"
                }
            ],
            "stateMutability": "view",
            "type": "function"
        },
        {
            "inputs": [],
            "name": "UPGRADER_ROLE",
            "outputs": [
                {
                    "internalType": "bytes32",
                    "name": "",
                    "type": "bytes32"
                }
            ],
            "stateMutability": "view",
            "type": "function"
        },
        {
            "inputs": [],
            "name": "USER_ROLE",
            "outputs": [
                {
                    "internalType": "bytes32",
                    "name": "",
                    "type": "bytes32"
                }
            ],
            "stateMutability": "view",
            "type": "function"
        },
        {
            "inputs": [],
            "name": "VASSAL_ROLE",
            "outputs": [
                {
                    "internalType": "bytes32",
                    "name": "",
                    "type": "bytes32"
                }
            ],
            "stateMutability": "view",
            "type": "function"
        },
        {
            "inputs": [
                {
                    "internalType": "uint256",
                    "name": "id",
                    "type": "uint256"
                },
                {
                    "internalType": "string",
                    "name": "svg",
                    "type": "string"
                }
            ],
            "name": "addSvgResouces",
            "outputs": [],
            "stateMutability": "nonpayable",
            "type": "function"
        },
        {
            "inputs": [
                {
                    "internalType": "address",
                    "name": "to",
                    "type": "address"
                },
                {
                    "internalType": "uint256",
                    "name": "tokenId",
                    "type": "uint256"
                }
            ],
            "name": "approve",
            "outputs": [],
            "stateMutability": "nonpayable",
            "type": "function"
        },
        {
            "inputs": [
                {
                    "internalType": "address",
                    "name": "owner",
                    "type": "address"
                }
            ],
            "name": "balanceOf",
            "outputs": [
                {
                    "internalType": "uint256",
                    "name": "",
                    "type": "uint256"
                }
            ],
            "stateMutability": "view",
            "type": "function"
        },
        {
            "inputs": [],
            "name": "beaconAddress",
            "outputs": [
                {
                    "internalType": "address",
                    "name": "",
                    "type": "address"
                }
            ],
            "stateMutability": "view",
            "type": "function"
        },
        {
            "inputs": [
                {
                    "internalType": "uint256",
                    "name": "tokenId",
                    "type": "uint256"
                }
            ],
            "name": "burn",
            "outputs": [],
            "stateMutability": "nonpayable",
            "type": "function"
        },
        {
            "inputs": [
                {
                    "internalType": "address",
                    "name": "_provinceAddress",
                    "type": "address"
                }
            ],
            "name": "contains",
            "outputs": [
                {
                    "internalType": "bool",
                    "name": "",
                    "type": "bool"
                }
            ],
            "stateMutability": "view",
            "type": "function"
        },
        {
            "inputs": [],
            "name": "continent",
            "outputs": [
                {
                    "internalType": "contract IContinent",
                    "name": "",
                    "type": "address"
                }
            ],
            "stateMutability": "view",
            "type": "function"
        },
        {
            "inputs": [
                {
                    "internalType": "uint256",
                    "name": "tokenId",
                    "type": "uint256"
                }
            ],
            "name": "getApproved",
            "outputs": [
                {
                    "internalType": "address",
                    "name": "",
                    "type": "address"
                }
            ],
            "stateMutability": "view",
            "type": "function"
        },
        {
            "inputs": [
                {
                    "internalType": "contract IUserAccountManager",
                    "name": "_userUserManager",
                    "type": "address"
                }
            ],
            "name": "initialize",
            "outputs": [],
            "stateMutability": "nonpayable",
            "type": "function"
        },
        {
            "inputs": [
                {
                    "internalType": "address",
                    "name": "owner",
                    "type": "address"
                },
                {
                    "internalType": "address",
                    "name": "operator",
                    "type": "address"
                }
            ],
            "name": "isApprovedForAll",
            "outputs": [
                {
                    "internalType": "bool",
                    "name": "",
                    "type": "bool"
                }
            ],
            "stateMutability": "view",
            "type": "function"
        },
        {
            "inputs": [
                {
                    "internalType": "string",
                    "name": "_name",
                    "type": "string"
                },
                {
                    "internalType": "address",
                    "name": "_owner",
                    "type": "address"
                }
            ],
            "name": "mintProvince",
            "outputs": [
                {
                    "internalType": "uint256",
                    "name": "",
                    "type": "uint256"
                },
                {
                    "internalType": "contract IProvince",
                    "name": "",
                    "type": "address"
                }
            ],
            "stateMutability": "nonpayable",
            "type": "function"
        },
        {
            "inputs": [],
            "name": "name",
            "outputs": [
                {
                    "internalType": "string",
                    "name": "",
                    "type": "string"
                }
            ],
            "stateMutability": "view",
            "type": "function"
        },
        {
            "inputs": [
                {
                    "internalType": "uint256",
                    "name": "tokenId",
                    "type": "uint256"
                }
            ],
            "name": "ownerOf",
            "outputs": [
                {
                    "internalType": "address",
                    "name": "",
                    "type": "address"
                }
            ],
            "stateMutability": "view",
            "type": "function"
        },
        {
            "inputs": [],
            "name": "pause",
            "outputs": [],
            "stateMutability": "nonpayable",
            "type": "function"
        },
        {
            "inputs": [],
            "name": "paused",
            "outputs": [
                {
                    "internalType": "bool",
                    "name": "",
                    "type": "bool"
                }
            ],
            "stateMutability": "view",
            "type": "function"
        },
        {
            "inputs": [
                {
                    "internalType": "uint256",
                    "name": "",
                    "type": "uint256"
                }
            ],
            "name": "provinces",
            "outputs": [
                {
                    "internalType": "contract IProvince",
                    "name": "",
                    "type": "address"
                }
            ],
            "stateMutability": "view",
            "type": "function"
        },
        {
            "inputs": [],
            "name": "proxiableUUID",
            "outputs": [
                {
                    "internalType": "bytes32",
                    "name": "",
                    "type": "bytes32"
                }
            ],
            "stateMutability": "view",
            "type": "function"
        },
        {
            "inputs": [
                {
                    "internalType": "address",
                    "name": "to",
                    "type": "address"
                }
            ],
            "name": "safeMint",
            "outputs": [
                {
                    "internalType": "uint256",
                    "name": "",
                    "type": "uint256"
                }
            ],
            "stateMutability": "nonpayable",
            "type": "function"
        },
        {
            "inputs": [
                {
                    "internalType": "address",
                    "name": "from",
                    "type": "address"
                },
                {
                    "internalType": "address",
                    "name": "to",
                    "type": "address"
                },
                {
                    "internalType": "uint256",
                    "name": "tokenId",
                    "type": "uint256"
                }
            ],
            "name": "safeTransferFrom",
            "outputs": [],
            "stateMutability": "nonpayable",
            "type": "function"
        },
        {
            "inputs": [
                {
                    "internalType": "address",
                    "name": "from",
                    "type": "address"
                },
                {
                    "internalType": "address",
                    "name": "to",
                    "type": "address"
                },
                {
                    "internalType": "uint256",
                    "name": "tokenId",
                    "type": "uint256"
                },
                {
                    "internalType": "bytes",
                    "name": "_data",
                    "type": "bytes"
                }
            ],
            "name": "safeTransferFrom",
            "outputs": [],
            "stateMutability": "nonpayable",
            "type": "function"
        },
        {
            "inputs": [
                {
                    "internalType": "address",
                    "name": "operator",
                    "type": "address"
                },
                {
                    "internalType": "bool",
                    "name": "approved",
                    "type": "bool"
                }
            ],
            "name": "setApprovalForAll",
            "outputs": [],
            "stateMutability": "nonpayable",
            "type": "function"
        },
        {
            "inputs": [
                {
                    "internalType": "contract IContinent",
                    "name": "_continent",
                    "type": "address"
                }
            ],
            "name": "setContinent",
            "outputs": [],
            "stateMutability": "nonpayable",
            "type": "function"
        },
        {
            "inputs": [
                {
                    "internalType": "address",
                    "name": "_template",
                    "type": "address"
                }
            ],
            "name": "setProvinceBeacon",
            "outputs": [],
            "stateMutability": "nonpayable",
            "type": "function"
        },
        {
            "inputs": [
                {
                    "internalType": "contract IUserAccountManager",
                    "name": "_userAccountManager",
                    "type": "address"
                }
            ],
            "name": "setUserAccountManager",
            "outputs": [],
            "stateMutability": "nonpayable",
            "type": "function"
        },
        {
            "inputs": [
                {
                    "internalType": "bytes4",
                    "name": "interfaceId",
                    "type": "bytes4"
                }
            ],
            "name": "supportsInterface",
            "outputs": [
                {
                    "internalType": "bool",
                    "name": "",
                    "type": "bool"
                }
            ],
            "stateMutability": "view",
            "type": "function"
        },
        {
            "inputs": [],
            "name": "symbol",
            "outputs": [
                {
                    "internalType": "string",
                    "name": "",
                    "type": "string"
                }
            ],
            "stateMutability": "view",
            "type": "function"
        },
        {
            "inputs": [
                {
                    "internalType": "uint256",
                    "name": "index",
                    "type": "uint256"
                }
            ],
            "name": "tokenByIndex",
            "outputs": [
                {
                    "internalType": "uint256",
                    "name": "",
                    "type": "uint256"
                }
            ],
            "stateMutability": "view",
            "type": "function"
        },
        {
            "inputs": [
                {
                    "internalType": "address",
                    "name": "owner",
                    "type": "address"
                },
                {
                    "internalType": "uint256",
                    "name": "index",
                    "type": "uint256"
                }
            ],
            "name": "tokenOfOwnerByIndex",
            "outputs": [
                {
                    "internalType": "uint256",
                    "name": "",
                    "type": "uint256"
                }
            ],
            "stateMutability": "view",
            "type": "function"
        },
        {
            "inputs": [
                {
                    "internalType": "uint256",
                    "name": "tokenId",
                    "type": "uint256"
                }
            ],
            "name": "tokenURI",
            "outputs": [
                {
                    "internalType": "string",
                    "name": "",
                    "type": "string"
                }
            ],
            "stateMutability": "view",
            "type": "function"
        },
        {
            "inputs": [],
            "name": "totalSupply",
            "outputs": [
                {
                    "internalType": "uint256",
                    "name": "",
                    "type": "uint256"
                }
            ],
            "stateMutability": "view",
            "type": "function"
        },
        {
            "inputs": [
                {
                    "internalType": "address",
                    "name": "from",
                    "type": "address"
                },
                {
                    "internalType": "address",
                    "name": "to",
                    "type": "address"
                },
                {
                    "internalType": "uint256",
                    "name": "tokenId",
                    "type": "uint256"
                }
            ],
            "name": "transferFrom",
            "outputs": [],
            "stateMutability": "nonpayable",
            "type": "function"
        },
        {
            "inputs": [],
            "name": "unpause",
            "outputs": [],
            "stateMutability": "nonpayable",
            "type": "function"
        },
        {
            "inputs": [
                {
                    "internalType": "address",
                    "name": "newImplementation",
                    "type": "address"
                }
            ],
            "name": "upgradeTo",
            "outputs": [],
            "stateMutability": "nonpayable",
            "type": "function"
        },
        {
            "inputs": [
                {
                    "internalType": "address",
                    "name": "newImplementation",
                    "type": "address"
                },
                {
                    "internalType": "bytes",
                    "name": "data",
                    "type": "bytes"
                }
            ],
            "name": "upgradeToAndCall",
            "outputs": [],
            "stateMutability": "payable",
            "type": "function"
        },
        {
            "inputs": [],
            "name": "userAccountManager",
            "outputs": [
                {
                    "internalType": "contract IUserAccountManager",
                    "name": "",
                    "type": "address"
                }
            ],
            "stateMutability": "view",
            "type": "function"
        }
    ],
    "bytecode": "60a0604052306080523480156200001557600080fd5b506200002062000026565b62000156565b6200003260ff62000035565b50565b60008054610100900460ff1615620000ce578160ff1660011480156200006e57506200006c306200014760201b62001cd71760201c565b155b620000c65760405162461bcd60e51b815260206004820152602e60248201526000805160206200550783398151915260448201526d191e481a5b9a5d1a585b1a5e995960921b60648201526084015b60405180910390fd5b506000919050565b60005460ff8084169116106200012d5760405162461bcd60e51b815260206004820152602e60248201526000805160206200550783398151915260448201526d191e481a5b9a5d1a585b1a5e995960921b6064820152608401620000bd565b506000805460ff191660ff92909216919091179055600190565b6001600160a01b03163b151590565b6080516153796200018e60003960008181610d3801528181610d7b01528181611174015281816111b701526112e801526153796000f3fe608060405260043610620002a75760003560e01c806368d3f1dc116200016b578063ac66f89511620000d1578063d53913931162000084578063d53913931462000893578063e58378bb14620008c9578063e63ab1e914620008ff578063e985e9c51462000935578063f72c0d8b1462000982578063f7ef0f2914620009b857600080fd5b8063ac66f89514620007a6578063b88d4fde14620007c9578063c4d66de814620007ee578063c87b56dd1462000813578063c8817c921462000838578063d042499f146200086e57600080fd5b80637e2ec6d0116200012a5780637e2ec6d014620006f557806381576dee14620007185780638456cb59146200073a57806395d89b411462000752578063a217fddf146200076a578063a22cb465146200078157600080fd5b806368d3f1dc14620005fc5780636cceb04b146200063257806370a0823114620006575780637a32f18d146200067c5780637a82785514620006bf57600080fd5b806340d097c311620002115780634f6ccce711620001d05780634f6ccce7146200053657806352d1902d146200055b57806355fc86ca14620005735780635c975abb14620005985780635dbe47e814620005b25780636352211e14620005d757600080fd5b806340d097c3146200048b57806342842e0e14620004b057806342966c6814620004d557806347caea0f14620004fa5780634f1ef286146200051f57600080fd5b806318160ddd116200026a57806318160ddd14620003b757806323b872dd14620003ce5780632f745c5914620003f3578063325c468114620004185780633659cfe6146200044e5780633f4ba83a146200047357600080fd5b806301ffc9a714620002ac57806306fdde0314620002e6578063081812fc146200030d578063095ea7b3146200034b578063131191611462000372575b600080fd5b348015620002b957600080fd5b50620002d1620002cb36600462003492565b620009f3565b60405190151581526020015b60405180910390f35b348015620002f357600080fd5b50620002fe62000a06565b604051620002dd91906200350f565b3480156200031a57600080fd5b50620003326200032c36600462003524565b62000aa0565b6040516001600160a01b039091168152602001620002dd565b3480156200035857600080fd5b50620003706200036a36600462003554565b62000b3b565b005b3480156200037f57600080fd5b50620003a87f14823911f2da1b49f045a0929a60b8c1f2a7fc8c06c7284ca3e8ab4e193a08c881565b604051908152602001620002dd565b348015620003c457600080fd5b50609954620003a8565b348015620003db57600080fd5b5062000370620003ed36600462003583565b62000c5b565b3480156200040057600080fd5b50620003a86200041236600462003554565b62000c94565b3480156200042557600080fd5b50620003a87f31a1f0ca852bcd68d3853cf7bf4c696a7b87e60d04850188bee04cf336fd677c81565b3480156200045b57600080fd5b50620003706200046d366004620035c9565b62000d2e565b3480156200048057600080fd5b506200037062000e19565b3480156200049857600080fd5b50620003a8620004aa366004620035c9565b62000ed8565b348015620004bd57600080fd5b5062000370620004cf36600462003583565b6200102b565b348015620004e257600080fd5b5062000370620004f436600462003524565b62001048565b3480156200050757600080fd5b506200037062000519366004620035c9565b620010c5565b620003706200053036600462003694565b6200116a565b3480156200054357600080fd5b50620003a86200055536600462003524565b62001242565b3480156200056857600080fd5b50620003a8620012db565b3480156200058057600080fd5b506200037062000592366004620035c9565b62001391565b348015620005a557600080fd5b5060c95460ff16620002d1565b348015620005bf57600080fd5b50620002d1620005d1366004620035c9565b6200146a565b348015620005e457600080fd5b5062000332620005f636600462003524565b6200147a565b3480156200060957600080fd5b50620003a87f7455f248a5834907e7cb3e096dc0bb9a52b16543e265cc3ddc3f46ab7e9f78f081565b3480156200063f57600080fd5b506200037062000651366004620035c9565b620014f3565b3480156200066457600080fd5b50620003a862000676366004620035c9565b620015ad565b3480156200068957600080fd5b50620006a16200069b366004620036ea565b62001636565b604080519283526001600160a01b03909116602083015201620002dd565b348015620006cc57600080fd5b50620003a87fedd8ce8e4cdc250ccb641bc100af90b02716cddd368d813003fd5c45c999d2d581565b3480156200070257600080fd5b506101945462000332906001600160a01b031681565b3480156200072557600080fd5b5060fb5462000332906001600160a01b031681565b3480156200074757600080fd5b506200037062001981565b3480156200075f57600080fd5b50620002fe62001a40565b3480156200077757600080fd5b50620003a8600081565b3480156200078e57600080fd5b5062000370620007a036600462003751565b62001a51565b348015620007b357600080fd5b506101935462000332906001600160a01b031681565b348015620007d657600080fd5b5062000370620007e836600462003784565b62001a5e565b348015620007fb57600080fd5b50620003706200080d366004620035c9565b62001a9d565b3480156200082057600080fd5b50620002fe6200083236600462003524565b62001b6c565b3480156200084557600080fd5b50620003a87f5a6aaa717e7c37d811a7c3b90ea322b3f31324741edcc2c76aa9b15c9867ce9781565b3480156200087b57600080fd5b50620003706200088d366004620037f8565b62001c26565b348015620008a057600080fd5b50620003a87f9f2df0fed2c77648de5860a4cc508cd0818c85b8b8a1ab4ceeef8d981c8956a681565b348015620008d657600080fd5b50620003a87fb19546dff01e856fb3f010c267a7b1c60363cf8a4664e21cc89c26224620214e81565b3480156200090c57600080fd5b50620003a87f65d7a28e3265b37a6474929f336521b332c1681b933f6cb9f3376673440d862a81565b3480156200094257600080fd5b50620002d1620009543660046200382b565b6001600160a01b039182166000908152606a6020908152604080832093909416825291909152205460ff1690565b3480156200098f57600080fd5b50620003a87f189ab7a9244df0848122154315af71fe140f3db0fe014031783b0946b8c9d2e381565b348015620009c557600080fd5b5062000332620009d736600462003524565b610195602052600090815260409020546001600160a01b031681565b600062000a008262001ce6565b92915050565b60606065805462000a17906200385e565b80601f016020809104026020016040519081016040528092919081815260200182805462000a45906200385e565b801562000a965780601f1062000a6a5761010080835404028352916020019162000a96565b820191906000526020600020905b81548152906001019060200180831162000a7857829003601f168201915b5050505050905090565b6000818152606760205260408120546001600160a01b031662000b1f5760405162461bcd60e51b815260206004820152602c60248201527f4552433732313a20617070726f76656420717565727920666f72206e6f6e657860448201526b34b9ba32b73a103a37b5b2b760a11b60648201526084015b60405180910390fd5b506000908152606960205260409020546001600160a01b031690565b600062000b48826200147a565b9050806001600160a01b0316836001600160a01b03160362000bb75760405162461bcd60e51b815260206004820152602160248201527f4552433732313a20617070726f76616c20746f2063757272656e74206f776e656044820152603960f91b606482015260840162000b16565b336001600160a01b038216148062000bd6575062000bd6813362000954565b62000c4a5760405162461bcd60e51b815260206004820152603860248201527f4552433732313a20617070726f76652063616c6c6572206973206e6f74206f7760448201527f6e6572206e6f7220617070726f76656420666f7220616c6c0000000000000000606482015260840162000b16565b62000c56838362001d0e565b505050565b62000c68335b8262001d7e565b62000c875760405162461bcd60e51b815260040162000b169062003894565b62000c5683838362001e7d565b600062000ca183620015ad565b821062000d055760405162461bcd60e51b815260206004820152602b60248201527f455243373231456e756d657261626c653a206f776e657220696e646578206f7560448201526a74206f6620626f756e647360a81b606482015260840162000b16565b506001600160a01b03919091166000908152609760209081526040808320938352929052205490565b6001600160a01b037f000000000000000000000000000000000000000000000000000000000000000016300362000d795760405162461bcd60e51b815260040162000b1690620038e5565b7f00000000000000000000000000000000000000000000000000000000000000006001600160a01b031662000dc460008051602062005229833981519152546001600160a01b031690565b6001600160a01b03161462000ded5760405162461bcd60e51b815260040162000b169062003931565b62000df88162002032565b6040805160008082526020820190925262000e1691839190620020e7565b50565b60fb54604051632474521560e21b81527f65d7a28e3265b37a6474929f336521b332c1681b933f6cb9f3376673440d862a60048201819052336024830152916001600160a01b0316906391d1485490604401602060405180830381865afa15801562000e89573d6000803e3d6000fd5b505050506040513d601f19601f8201168201806040525081019062000eaf91906200397d565b62000ece5760405162461bcd60e51b815260040162000b16906200399d565b62000e166200225f565b60fb54604051632474521560e21b81527f9f2df0fed2c77648de5860a4cc508cd0818c85b8b8a1ab4ceeef8d981c8956a66004820181905233602483015260009290916001600160a01b03909116906391d1485490604401602060405180830381865afa15801562000f4e573d6000803e3d6000fd5b505050506040513d601f19601f8201168201806040525081019062000f7491906200397d565b62000f935760405162461bcd60e51b815260040162000b16906200399d565b62000ff760405180604001604052806016815260200175039b0b332a6b4b73a1d1036b9b39739b2b73232b91d160551b8152503360405180604001604052806011815260200170081a5cc81b5a5b9d1a5b99c81848139195607a1b815250620022f4565b6000620010046101925490565b90506200101661019280546001019055565b6200102284826200233f565b91505b50919050565b62000c568383836040518060200160405280600081525062001a5e565b620010533362000c61565b620010ba5760405162461bcd60e51b815260206004820152603060248201527f4552433732314275726e61626c653a2063616c6c6572206973206e6f74206f7760448201526f1b995c881b9bdc88185c1c1c9bdd995960821b606482015260840162000b16565b62000e16816200235b565b60fb54604051632474521560e21b8152600060048201819052336024830152916001600160a01b0316906391d1485490604401602060405180830381865afa15801562001116573d6000803e3d6000fd5b505050506040513d601f19601f820116820180604052508101906200113c91906200397d565b6200115b5760405162461bcd60e51b815260040162000b16906200399d565b62001166826200240a565b5050565b6001600160a01b037f0000000000000000000000000000000000000000000000000000000000000000163003620011b55760405162461bcd60e51b815260040162000b1690620038e5565b7f00000000000000000000000000000000000000000000000000000000000000006001600160a01b03166200120060008051602062005229833981519152546001600160a01b031690565b6001600160a01b031614620012295760405162461bcd60e51b815260040162000b169062003931565b620012348262002032565b6200116682826001620020e7565b60006200124e60995490565b8210620012b35760405162461bcd60e51b815260206004820152602c60248201527f455243373231456e756d657261626c653a20676c6f62616c20696e646578206f60448201526b7574206f6620626f756e647360a01b606482015260840162000b16565b60998281548110620012c957620012c9620039ea565b90600052602060002001549050919050565b6000306001600160a01b037f000000000000000000000000000000000000000000000000000000000000000016146200137d5760405162461bcd60e51b815260206004820152603860248201527f555550535570677261646561626c653a206d757374206e6f742062652063616c60448201527f6c6564207468726f7567682064656c656761746563616c6c0000000000000000606482015260840162000b16565b506000805160206200522983398151915290565b60fb54604051632474521560e21b81527f189ab7a9244df0848122154315af71fe140f3db0fe014031783b0946b8c9d2e360048201819052336024830152916001600160a01b0316906391d1485490604401602060405180830381865afa15801562001401573d6000803e3d6000fd5b505050506040513d601f19601f820116820180604052508101906200142791906200397d565b620014465760405162461bcd60e51b815260040162000b16906200399d565b5061019480546001600160a01b0319166001600160a01b0392909216919091179055565b600062000a00610196836200242c565b6000818152606760205260408120546001600160a01b03168062000a005760405162461bcd60e51b815260206004820152602960248201527f4552433732313a206f776e657220717565727920666f72206e6f6e657869737460448201526832b73a103a37b5b2b760b91b606482015260840162000b16565b60fb54604051632474521560e21b8152600060048201819052336024830152916001600160a01b0316906391d1485490604401602060405180830381865afa15801562001544573d6000803e3d6000fd5b505050506040513d601f19601f820116820180604052508101906200156a91906200397d565b620015895760405162461bcd60e51b815260040162000b16906200399d565b5061019380546001600160a01b0319166001600160a01b0392909216919091179055565b60006001600160a01b0382166200161a5760405162461bcd60e51b815260206004820152602a60248201527f4552433732313a2062616c616e636520717565727920666f7220746865207a65604482015269726f206164647265737360b01b606482015260840162000b16565b506001600160a01b031660009081526068602052604090205490565b60fb54604051632474521560e21b81527f9f2df0fed2c77648de5860a4cc508cd0818c85b8b8a1ab4ceeef8d981c8956a66004820181905233602483015260009283926001600160a01b03909116906391d1485490604401602060405180830381865afa158015620016ac573d6000803e3d6000fd5b505050506040513d601f19601f82011682018060405250810190620016d291906200397d565b620016f15760405162461bcd60e51b815260040162000b16906200399d565b620017326040518060400160405280601a81526020017f6d696e7450726f76696e63653a206d73672e73656e6465723a20000000000000815250336200244a565b620017736040518060400160405280601a81526020017f6d696e7450726f76696e63653a206d73672e6f726967696e3a20000000000000815250326200244a565b60408051808201909152601d81527f6d696e7450726f76696e63653a20626561636f6e416464726573733a20000000602082015261019454620017c091906001600160a01b03166200244a565b620017fa60405180604001604052806016815260200175027bbb732b91d103132b0b1b7b720b2323932b9b99d160551b815250856200244a565b604080518082019091526016815275021b7b73a34b732b73a1d1031b7b73a34b732b73a1d160551b6020820152610193546200184091906001600160a01b03166200244a565b60006200184d8562000ed8565b61019454610193546040519293506000926001600160a01b039283169263463fd1af60e01b9262001887928c928c92169060240162003a00565b60408051601f198184030181529181526020820180516001600160e01b03166001600160e01b0319909416939093179092529051620018c6906200346d565b620018d392919062003a35565b604051809103906000f080158015620018f0573d6000803e3d6000fd5b509050620019176040518060600160405280602f815260200162005315602f913962002493565b6000828152610195602090815260409182902080546001600160a01b0319166001600160a01b038516179055815160608101909252602d808352620019659291620051fc9083013962002493565b620019746101968284620024da565b5090969095509350505050565b60fb54604051632474521560e21b81527f65d7a28e3265b37a6474929f336521b332c1681b933f6cb9f3376673440d862a60048201819052336024830152916001600160a01b0316906391d1485490604401602060405180830381865afa158015620019f1573d6000803e3d6000fd5b505050506040513d601f19601f8201168201806040525081019062001a1791906200397d565b62001a365760405162461bcd60e51b815260040162000b16906200399d565b62000e16620024f2565b60606066805462000a17906200385e565b6200116633838362002570565b62001a6a338362001d7e565b62001a895760405162461bcd60e51b815260040162000b169062003894565b62001a978484848462002640565b50505050565b600062001aab60016200267a565b9050801562001ac4576000805461ff0019166101001790555b62001acf826200270a565b62001b22604051806040016040528060138152602001724b696e6773476f6c642050726f76696e63657360681b8152506040518060400160405280600481526020016304b5347560e41b815250620027bc565b801562001166576000805461ff0019169055604051600181527f7f26b83ff96e1f2b6a682f133852f6798a09c465da95921460cefb38474024989060200160405180910390a15050565b600081815261019560205260408120546060916001600160a01b039091169062001b9684620027f2565b905060008162001ba56200290b565b62001bb16064620027f2565b62001bbd6064620027f2565b62001bc96064620027f2565b60405160200162001bdf95949392919062003a79565b604051602081830303815290604052905062001bfb8162002971565b60405160200162001c0d919062003bf8565b6040516020818303038152906040529350505050919050565b60fb54604051632474521560e21b8152600060048201819052336024830152916001600160a01b0316906391d1485490604401602060405180830381865afa15801562001c77573d6000803e3d6000fd5b505050506040513d601f19601f8201168201806040525081019062001c9d91906200397d565b62001cbc5760405162461bcd60e51b815260040162000b16906200399d565b60008381526101996020526040902062001a97838262003c91565b6001600160a01b03163b151590565b60006001600160e01b0319821663780e9d6360e01b148062000a00575062000a008262002ad6565b600081815260696020526040902080546001600160a01b0319166001600160a01b038416908117909155819062001d45826200147a565b6001600160a01b03167f8c5be1e5ebec7d5bd14f71427d1e84f3dd0314c0f7b2291e5b200ac8c7c3b92560405160405180910390a45050565b6000818152606760205260408120546001600160a01b031662001df95760405162461bcd60e51b815260206004820152602c60248201527f4552433732313a206f70657261746f7220717565727920666f72206e6f6e657860448201526b34b9ba32b73a103a37b5b2b760a11b606482015260840162000b16565b600062001e06836200147a565b9050806001600160a01b0316846001600160a01b0316148062001e4e57506001600160a01b038082166000908152606a602090815260408083209388168352929052205460ff165b8062001e755750836001600160a01b031662001e6a8462000aa0565b6001600160a01b0316145b949350505050565b826001600160a01b031662001e92826200147a565b6001600160a01b03161462001ef85760405162461bcd60e51b815260206004820152602560248201527f4552433732313a207472616e736665722066726f6d20696e636f72726563742060448201526437bbb732b960d91b606482015260840162000b16565b6001600160a01b03821662001f5c5760405162461bcd60e51b8152602060048201526024808201527f4552433732313a207472616e7366657220746f20746865207a65726f206164646044820152637265737360e01b606482015260840162000b16565b62001f6983838362002b29565b62001f7660008262001d0e565b6001600160a01b038316600090815260686020526040812080546001929062001fa190849062003d74565b90915550506001600160a01b038216600090815260686020526040812080546001929062001fd190849062003d8e565b909155505060008181526067602052604080822080546001600160a01b0319166001600160a01b0386811691821790925591518493918716917fddf252ad1be2c89b69c2b068fc378daa952ba7f163c4a11628f55a4df523b3ef91a4505050565b60fb54604051632474521560e21b81527f189ab7a9244df0848122154315af71fe140f3db0fe014031783b0946b8c9d2e360048201819052336024830152916001600160a01b0316906391d1485490604401602060405180830381865afa158015620020a2573d6000803e3d6000fd5b505050506040513d601f19601f82011682018060405250810190620020c891906200397d565b620011665760405162461bcd60e51b815260040162000b16906200399d565b7f4910fdfa16fed3260ed0e7147f7cc6da11a60208b5b9406d12a635614ffd91435460ff16156200211d5762000c568362002b7e565b826001600160a01b03166352d1902d6040518163ffffffff1660e01b8152600401602060405180830381865afa9250505080156200217a575060408051601f3d908101601f19168201909252620021779181019062003da9565b60015b620021df5760405162461bcd60e51b815260206004820152602e60248201527f45524331393637557067726164653a206e657720696d706c656d656e7461746960448201526d6f6e206973206e6f74205555505360901b606482015260840162000b16565b600080516020620052298339815191528114620022515760405162461bcd60e51b815260206004820152602960248201527f45524331393637557067726164653a20756e737570706f727465642070726f786044820152681a58589b195555525160ba1b606482015260840162000b16565b5062000c5683838362002c1d565b60c95460ff16620022aa5760405162461bcd60e51b815260206004820152601460248201527314185d5cd8589b194e881b9bdd081c185d5cd95960621b604482015260640162000b16565b60c9805460ff191690557f5db9ee0a495bf2e6ff9c91a7834c1ba4fdd244a5e8aa4e537bd38aeae4b073aa335b6040516001600160a01b03909116815260200160405180910390a1565b62000c568383836040516024016200230f9392919062003dc3565b60408051601f198184030181529190526020810180516001600160e01b031663e0e9ad4f60e01b17905262002c48565b6200116682826040518060200160405280600081525062002c69565b600062002368826200147a565b9050620023788160008462002b29565b6200238560008362001d0e565b6001600160a01b0381166000908152606860205260408120805460019290620023b090849062003d74565b909155505060008281526067602052604080822080546001600160a01b0319169055518391906001600160a01b038416907fddf252ad1be2c89b69c2b068fc378daa952ba7f163c4a11628f55a4df523b3ef908390a45050565b60fb80546001600160a01b0319166001600160a01b0392909216919091179055565b600062002443836001600160a01b03841662002ca3565b9392505050565b6200116682826040516024016200246392919062003e05565b60408051601f198184030181529190526020810180516001600160e01b031663319af33360e01b17905262002c48565b62000e1681604051602401620024aa91906200350f565b60408051601f198184030181529190526020810180516001600160e01b031663104c13eb60e21b17905262002c48565b600062001e75846001600160a01b0385168462002cb1565b60c95460ff16156200253a5760405162461bcd60e51b815260206004820152601060248201526f14185d5cd8589b194e881c185d5cd95960821b604482015260640162000b16565b60c9805460ff191660011790557f62e78cea01bee320cd4e420270b5ea74000d11b0c9f74754ebdbfc544b05a258620022d73390565b816001600160a01b0316836001600160a01b031603620025d35760405162461bcd60e51b815260206004820152601960248201527f4552433732313a20617070726f766520746f2063616c6c657200000000000000604482015260640162000b16565b6001600160a01b038381166000818152606a6020908152604080832094871680845294825291829020805460ff191686151590811790915591519182527f17307eab39ab6107e8899845ad3d59bd9653f200f220920489ca2b5937696c31910160405180910390a3505050565b6200264d84848462001e7d565b6200265b8484848462002cd0565b62001a975760405162461bcd60e51b815260040162000b169062003e31565b60008054610100900460ff1615620026c6578160ff1660011480156200269f5750303b155b620026be5760405162461bcd60e51b815260040162000b169062003e83565b506000919050565b60005460ff808416911610620026f05760405162461bcd60e51b815260040162000b169062003e83565b506000805460ff191660ff92909216919091179055600190565b60006200271860016200267a565b9050801562002731576000805461ff0019166101001790555b6200273c826200240a565b620027946040518060400160405280601481526020017312da5b99dcd1dbdb190811d95b995c9a58d3919560621b8152506040518060400160405280600881526020016712d4d1c811d3919560c21b815250620027bc565b6200279e62002dde565b620027a862002e0a565b620027b262002dde565b62001b2262002dde565b600054610100900460ff16620027e65760405162461bcd60e51b815260040162000b169062003ed1565b62001166828262002e3e565b6060816000036200281a5750506040805180820190915260018152600360fc1b602082015290565b8160005b81156200284a5780620028318162003f1c565b9150620028429050600a8362003f4e565b91506200281e565b60008167ffffffffffffffff811115620028685762002868620035e9565b6040519080825280601f01601f19166020018201604052801562002893576020820181803683370190505b5090505b841562001e7557620028ab60018362003d74565b9150620028ba600a8662003f65565b620028c790603062003d8e565b60f81b818381518110620028df57620028df620039ea565b60200101906001600160f81b031916908160001a90535062002903600a8662003f4e565b945062002897565b606060006040518060a0016040528060658152602001620052b060659139604051806040016040528060068152602001651e17b9bb339f60d11b8152506040516020016200295b92919062003f7c565b60408051601f1981840301815291905292915050565b606081516000036200299157505060408051602081019091526000815290565b6000604051806060016040528060408152602001620052496040913990506000600384516002620029c3919062003d8e565b620029cf919062003f4e565b620029dc906004620047c6565b67ffffffffffffffff811115620029f757620029f7620035e9565b6040519080825280601f01601f19166020018201604052801562002a22576020820181803683370190505b509050600182016020820185865187015b8082101562002a90576003820191508151603f8160121c168501518453600184019350603f81600c1c168501518453600184019350603f8160061c168501518453600184019350603f811685015184535060018301925062002a33565b505060038651066001811462002aaf576002811462002ac35762002acb565b603d6001830353603d600283035362002acb565b603d60018303535b509195945050505050565b60006001600160e01b031982166380ac58cd60e01b148062002b0857506001600160e01b03198216635b5e139f60e01b145b8062000a0057506301ffc9a760e01b6001600160e01b031983161462000a00565b60c95460ff161562002b715760405162461bcd60e51b815260206004820152601060248201526f14185d5cd8589b194e881c185d5cd95960821b604482015260640162000b16565b62000c5683838362002e85565b6001600160a01b0381163b62002bed5760405162461bcd60e51b815260206004820152602d60248201527f455243313936373a206e657720696d706c656d656e746174696f6e206973206e60448201526c1bdd08184818dbdb9d1c9858dd609a1b606482015260840162000b16565b6000805160206200522983398151915280546001600160a01b0319166001600160a01b0392909216919091179055565b62002c288362002f49565b60008251118062002c365750805b1562000c565762001a97838362002f8b565b80516a636f6e736f6c652e6c6f67602083016000808483855afa5050505050565b62002c75838362003088565b62002c84600084848462002cd0565b62000c565760405162461bcd60e51b815260040162000b169062003e31565b6000620024438383620031de565b6000828152600284016020526040812082905562001e758484620031f7565b60006001600160a01b0384163b1562002dd357604051630a85bd0160e11b81526001600160a01b0385169063150b7a029062002d17903390899088908890600401620047e8565b6020604051808303816000875af192505050801562002d55575060408051601f3d908101601f1916820190925262002d52918101906200481d565b60015b62002db8573d80801562002d86576040519150601f19603f3d011682016040523d82523d6000602084013e62002d8b565b606091505b50805160000362002db05760405162461bcd60e51b815260040162000b169062003e31565b805181602001fd5b6001600160e01b031916630a85bd0160e11b14905062001e75565b506001949350505050565b600054610100900460ff1662002e085760405162461bcd60e51b815260040162000b169062003ed1565b565b600054610100900460ff1662002e345760405162461bcd60e51b815260040162000b169062003ed1565b62002e0862003205565b600054610100900460ff1662002e685760405162461bcd60e51b815260040162000b169062003ed1565b606562002e76838262003c91565b50606662000c56828262003c91565b6001600160a01b03831662002ee35762002edd81609980546000838152609a60205260408120829055600182018355919091527f72a152ddfb8e864297c917af52ea6c1c68aead0fee1a62673fcc7e0c94979d000155565b62002f09565b816001600160a01b0316836001600160a01b03161462002f095762002f0983826200323b565b6001600160a01b03821662002f235762000c5681620032dd565b826001600160a01b0316826001600160a01b03161462000c565762000c56828262003397565b62002f548162002b7e565b6040516001600160a01b038216907fbc7cd75a20ee27fd9adebab32041f755214dbc6bffa90cc0225b39da2e5c2d3b90600090a250565b60606001600160a01b0383163b62002ff55760405162461bcd60e51b815260206004820152602660248201527f416464726573733a2064656c65676174652063616c6c20746f206e6f6e2d636f6044820152651b9d1c9858dd60d21b606482015260840162000b16565b600080846001600160a01b0316846040516200301291906200483d565b600060405180830381855af49150503d80600081146200304f576040519150601f19603f3d011682016040523d82523d6000602084013e62003054565b606091505b50915091506200307f82826040518060600160405280602781526020016200528960279139620033dd565b95945050505050565b6001600160a01b038216620030e05760405162461bcd60e51b815260206004820181905260248201527f4552433732313a206d696e7420746f20746865207a65726f2061646472657373604482015260640162000b16565b6000818152606760205260409020546001600160a01b031615620031475760405162461bcd60e51b815260206004820152601c60248201527f4552433732313a20746f6b656e20616c7265616479206d696e74656400000000604482015260640162000b16565b620031556000838362002b29565b6001600160a01b03821660009081526068602052604081208054600192906200318090849062003d8e565b909155505060008181526067602052604080822080546001600160a01b0319166001600160a01b03861690811790915590518392907fddf252ad1be2c89b69c2b068fc378daa952ba7f163c4a11628f55a4df523b3ef908290a45050565b6000818152600183016020526040812054151562002443565b60006200244383836200341b565b600054610100900460ff166200322f5760405162461bcd60e51b815260040162000b169062003ed1565b60c9805460ff19169055565b600060016200324a84620015ad565b62003256919062003d74565b600083815260986020526040902054909150808214620032aa576001600160a01b03841660009081526097602090815260408083208584528252808320548484528184208190558352609890915290208190555b5060009182526098602090815260408084208490556001600160a01b039094168352609781528383209183525290812055565b609954600090620032f19060019062003d74565b6000838152609a6020526040812054609980549394509092849081106200331c576200331c620039ea565b906000526020600020015490508060998381548110620033405762003340620039ea565b6000918252602080832090910192909255828152609a909152604080822084905585825281205560998054806200337b576200337b6200485b565b6001900381819060005260206000200160009055905550505050565b6000620033a483620015ad565b6001600160a01b039093166000908152609760209081526040808320868452825280832085905593825260989052919091209190915550565b60608315620033ee57508162002443565b825115620033ff5782518084602001fd5b8160405162461bcd60e51b815260040162000b1691906200350f565b6000818152600183016020526040812054620034645750815460018181018455600084815260208082209093018490558454848252828601909352604090209190915562000a00565b50600062000a00565b61098a806200487283390190565b6001600160e01b03198116811462000e1657600080fd5b600060208284031215620034a557600080fd5b813562002443816200347b565b60005b83811015620034cf578181015183820152602001620034b5565b8381111562001a975750506000910152565b60008151808452620034fb816020860160208601620034b2565b601f01601f19169290920160200192915050565b602081526000620024436020830184620034e1565b6000602082840312156200353757600080fd5b5035919050565b6001600160a01b038116811462000e1657600080fd5b600080604083850312156200356857600080fd5b823562003575816200353e565b946020939093013593505050565b6000806000606084860312156200359957600080fd5b8335620035a6816200353e565b92506020840135620035b8816200353e565b929592945050506040919091013590565b600060208284031215620035dc57600080fd5b813562002443816200353e565b634e487b7160e01b600052604160045260246000fd5b600082601f8301126200361157600080fd5b813567ffffffffffffffff808211156200362f576200362f620035e9565b604051601f8301601f19908116603f011681019082821181831017156200365a576200365a620035e9565b816040528381528660208588010111156200367457600080fd5b836020870160208301376000602085830101528094505050505092915050565b60008060408385031215620036a857600080fd5b8235620036b5816200353e565b9150602083013567ffffffffffffffff811115620036d257600080fd5b620036e085828601620035ff565b9150509250929050565b60008060408385031215620036fe57600080fd5b823567ffffffffffffffff8111156200371657600080fd5b6200372485828601620035ff565b925050602083013562003737816200353e565b809150509250929050565b801515811462000e1657600080fd5b600080604083850312156200376557600080fd5b823562003772816200353e565b91506020830135620037378162003742565b600080600080608085870312156200379b57600080fd5b8435620037a8816200353e565b93506020850135620037ba816200353e565b925060408501359150606085013567ffffffffffffffff811115620037de57600080fd5b620037ec87828801620035ff565b91505092959194509250565b600080604083850312156200380c57600080fd5b82359150602083013567ffffffffffffffff811115620036d257600080fd5b600080604083850312156200383f57600080fd5b82356200384c816200353e565b9150602083013562003737816200353e565b600181811c908216806200387357607f821691505b6020821081036200102557634e487b7160e01b600052602260045260246000fd5b60208082526031908201527f4552433732313a207472616e736665722063616c6c6572206973206e6f74206f6040820152701ddb995c881b9bdc88185c1c1c9bdd9959607a1b606082015260800190565b6020808252602c908201527f46756e6374696f6e206d7573742062652063616c6c6564207468726f7567682060408201526b19195b1959d85d1958d85b1b60a21b606082015260800190565b6020808252602c908201527f46756e6374696f6e206d7573742062652063616c6c6564207468726f7567682060408201526b6163746976652070726f787960a01b606082015260800190565b6000602082840312156200399057600080fd5b8151620024438162003742565b6020808252602d908201527f47656e65726963416363657373436f6e74726f6c2e6f6e6c79526f6c65203a2060408201526c1058d8d95cdcc819195b9a5959609a1b606082015260800190565b634e487b7160e01b600052603260045260246000fd5b60608152600062003a156060830186620034e1565b6001600160a01b0394851660208401529290931660409091015292915050565b6001600160a01b038316815260406020820181905260009062001e7590830184620034e1565b6000815162003a6f818560208601620034b2565b9290920192915050565b693d913730b6b2911d101160b11b8152855160009062003aa181600a850160208b01620034b2565b61088b60f21b600a9184019182018190526e1134b6b0b3b2afb230ba30911d101160891b600c830152875162003adf81601b850160208c01620034b2565b601b9201918201526e2261747472696275746573223a205b60881b601d8201527f7b2274726169745f74797065223a2022506c61696e73222c202276616c756522602c8201526101d160f51b604c82015262003bec62003bde62003b5962003bd762003ba28262003b9b62003b6782604e8a018f62003a5b565b611f4b60f21b815260020190565b7f7b2274726169745f74797065223a2022466f72657374222c202276616c75652281526101d160f51b602082015260220190565b8b62003a5b565b7f7b2274726169745f74797065223a20224d6f757461696e222c202276616c75658152620111d160ed1b602082015260230190565b8762003a5b565b615d7d60f01b815260020190565b98975050505050505050565b7f646174613a6170706c69636174696f6e2f6a736f6e3b6261736536342c00000081526000825162003c3281601d850160208701620034b2565b91909101601d0192915050565b601f82111562000c5657600081815260208120601f850160051c8101602086101562003c685750805b601f850160051c820191505b8181101562003c895782815560010162003c74565b505050505050565b815167ffffffffffffffff81111562003cae5762003cae620035e9565b62003cc68162003cbf84546200385e565b8462003c3f565b602080601f83116001811462003cfe576000841562003ce55750858301515b600019600386901b1c1916600185901b17855562003c89565b600085815260208120601f198616915b8281101562003d2f5788860151825594840194600190910190840162003d0e565b508582101562003d4e5787850151600019600388901b60f8161c191681555b5050505050600190811b01905550565b634e487b7160e01b600052601160045260246000fd5b60008282101562003d895762003d8962003d5e565b500390565b6000821982111562003da45762003da462003d5e565b500190565b60006020828403121562003dbc57600080fd5b5051919050565b60608152600062003dd86060830186620034e1565b6001600160a01b0385166020840152828103604084015262003dfb8185620034e1565b9695505050505050565b60408152600062003e1a6040830185620034e1565b905060018060a01b03831660208301529392505050565b60208082526032908201527f4552433732313a207472616e7366657220746f206e6f6e20455243373231526560408201527131b2b4bb32b91034b6b83632b6b2b73a32b960711b606082015260800190565b6020808252602e908201527f496e697469616c697a61626c653a20636f6e747261637420697320616c72656160408201526d191e481a5b9a5d1a585b1a5e995960921b606082015260800190565b6020808252602b908201527f496e697469616c697a61626c653a20636f6e7472616374206973206e6f74206960408201526a6e697469616c697a696e6760a81b606082015260800190565b60006001820162003f315762003f3162003d5e565b5060010190565b634e487b7160e01b600052601260045260246000fd5b60008262003f605762003f6062003f38565b500490565b60008262003f775762003f7762003f38565b500690565b6000835162003f90818460208801620034b2565b7f3c7061746820643d274d31312e35352031382e34364331312e333531362031389083019081527f2e343537372031312e313631372031382e333738392031312e30322031382e3260208201527f344c352e33323030312031322e353343352e31393439322031322e333933352060408201527f352e31323535332031322e3231353120352e31323535332031322e303343352e60608201527f31323535332031312e3834343920352e31393439322031312e3636363520352e60808201527f33323030312031312e35334c31332e373120334331332e3835303520322e383560a08201527f3933312031342e3034313220322e37383031372031342e323420322e3738483160c08201527f392e39394332302e3138363320322e37382032302e3337343520322e3835373960e08201527f362032302e3531333320322e39393637344332302e36353220332e31333535326101008201527f2032302e373320332e33323337342032302e373320332e35324c32302e3820396101208201527f2e324332302e3830303320392e34303138382032302e3732313320392e3539356101408201527f382032302e353820392e37344c31322e30372031382e32354331312e393238326101608201527f2031382e333831322031312e373433322031382e343535392031312e353520316101808201527f382e34365a4d362e39303030312031324c31312e35352031362e36344c31392e6101a08201527f3320382e38394c31392e323520342e32374831342e35364c362e3930303031206101c08201527f31325a272066696c6c3d27726564272f3e203c7061746820643d274d31342e336101e08201527f352032312e32354331342e323531322032312e323532322031342e31353320326102008201527f312e323333382031342e303631382032312e313935394331332e3937303520326102208201527f312e3135382031332e383838322032312e313031352031332e38322032312e306102408201527f334c322e353220392e373339393943322e333837353220392e353937383220326102608201527f2e3331353420392e343039373720322e333138383320392e323135343743322e6102808201527f333232323620392e303231313720322e343030393720382e383335373820322e6102a08201527f353338333820382e363938333743322e363735373920382e353630393620322e6102c08201527f383631313820382e343832323420332e303535343820382e343738383243332e6102e08201527f323439373820382e343735333920332e343337383320382e353437353120332e6103008201527f353820382e36373939394c31342e38382032304331352e303230352032302e316103208201527f3430362031352e303939332032302e333331322031352e303939332032302e356103408201527f334331352e303939332032302e373238372031352e303230352032302e3931396103608201527f342031342e38382032312e30364331342e373335332032312e313930372031346103808201527f2e353434382032312e3235392031342e33352032312e32355a272066696c6c3d6103a08201527f27726564272f3e203c7061746820643d274d362e352032312e313943362e33316103c08201527f3633322032312e3138363720362e31333935312032312e3131393520362032316103e08201527f4c322e35352031372e353543322e34373838342031372e3437373420322e34326104008201527f3237362031372e3339313420322e3338352031372e32393743322e33343732346104208201527f2031372e3230323620322e33323835352031372e3130313720322e33332031376104408201527f43322e33332031362e353920322e33332031362e353820362e34352031322e356104608201527f3843362e35393036332031322e3433393520362e37383132352031322e3336306104808201527f3720362e39382031322e3336303743372e31373837362031322e3336303720376104a08201527f2e33363933382031322e3433393520372e35312031322e353843372e363530346104c08201527f362031322e3732303620372e37323933342031322e3931313220372e373239336104e08201527f342031332e313143372e37323933342031332e3330383720372e3635303436206105008201527f31332e3439393420372e35312031332e363443362e32323030312031342e39316105208201527f20342e38322031362e323920342e31322031374c362e352031392e33384c392e6105408201527f383620313643392e39323839352031352e393239322031302e303131342031356105608201527f2e3837332031302e313032342031352e383334364331302e313933342031352e6105808201527f373936322031302e323931322031352e373736342031302e33392031352e37376105a08201527f36344331302e343838382031352e373736342031302e353836362031352e37396105c08201527f36322031302e363737362031352e383334364331302e373638362031352e38376105e08201527f332031302e383531312031352e393239322031302e39322031364331312e30366106008201527f30352031362e313430362031312e313339332031362e333331322031312e31336106208201527f39332031362e35334331312e313339332031362e373238372031312e303630356106408201527f2031362e393139342031302e39322031372e30364c3720323143362e383631346106608201527f2032312e31323120362e36383430322032312e3138383420362e352032312e316106808201526f1cad13903334b6361e93b932b213979f60811b6106a08201526200307f6106b082018562003a5b565b6000816000190483118215151615620047e357620047e362003d5e565b500290565b6001600160a01b038581168252841660208201526040810183905260806060820181905260009062003dfb90830184620034e1565b6000602082840312156200483057600080fd5b815162002443816200347b565b6000825162004851818460208701620034b2565b9190910192915050565b634e487b7160e01b600052603160045260246000fdfe608060405260405161098a38038061098a8339810160408190526100229161048b565b61004d60017fa3f0ad74e5423aebfd80d3ef4346578335a9a72aeaee59ff6cb3582b35133d5161054b565b6000805160206109438339815191521461006957610069610570565b6100758282600061007c565b50506105f0565b61008583610147565b6040516001600160a01b038416907f1cf3b03a6cf19fa2baba4df148e9dcabedea7f8a5c07840e207e5c089be95d3e90600090a26000825111806100c65750805b1561014257610140836001600160a01b0316635c60da1b6040518163ffffffff1660e01b8152600401602060405180830381865afa15801561010c573d6000803e3d6000fd5b505050506040513d601f19601f820116820180604052508101906101309190610586565b836102d860201b6100291760201c565b505b505050565b61015a8161030460201b6100551760201c565b6101b95760405162461bcd60e51b815260206004820152602560248201527f455243313936373a206e657720626561636f6e206973206e6f74206120636f6e6044820152641d1c9858dd60da1b60648201526084015b60405180910390fd5b61022d816001600160a01b0316635c60da1b6040518163ffffffff1660e01b8152600401602060405180830381865afa1580156101fa573d6000803e3d6000fd5b505050506040513d601f19601f8201168201806040525081019061021e9190610586565b61030460201b6100551760201c565b6102925760405162461bcd60e51b815260206004820152603060248201527f455243313936373a20626561636f6e20696d706c656d656e746174696f6e206960448201526f1cc81b9bdd08184818dbdb9d1c9858dd60821b60648201526084016101b0565b806102b760008051602061094383398151915260001b61031360201b6100641760201c565b80546001600160a01b0319166001600160a01b039290921691909117905550565b60606102fd838360405180606001604052806027815260200161096360279139610316565b9392505050565b6001600160a01b03163b151590565b90565b60606001600160a01b0384163b61037e5760405162461bcd60e51b815260206004820152602660248201527f416464726573733a2064656c65676174652063616c6c20746f206e6f6e2d636f6044820152651b9d1c9858dd60d21b60648201526084016101b0565b600080856001600160a01b03168560405161039991906105a1565b600060405180830381855af49150503d80600081146103d4576040519150601f19603f3d011682016040523d82523d6000602084013e6103d9565b606091505b5090925090506103ea8282866103f4565b9695505050505050565b606083156104035750816102fd565b8251156104135782518084602001fd5b8160405162461bcd60e51b81526004016101b091906105bd565b80516001600160a01b038116811461044457600080fd5b919050565b634e487b7160e01b600052604160045260246000fd5b60005b8381101561047a578181015183820152602001610462565b838111156101405750506000910152565b6000806040838503121561049e57600080fd5b6104a78361042d565b60208401519092506001600160401b03808211156104c457600080fd5b818501915085601f8301126104d857600080fd5b8151818111156104ea576104ea610449565b604051601f8201601f19908116603f0116810190838211818310171561051257610512610449565b8160405282815288602084870101111561052b57600080fd5b61053c83602083016020880161045f565b80955050505050509250929050565b60008282101561056b57634e487b7160e01b600052601160045260246000fd5b500390565b634e487b7160e01b600052600160045260246000fd5b60006020828403121561059857600080fd5b6102fd8261042d565b600082516105b381846020870161045f565b9190910192915050565b60208152600082518060208401526105dc81604085016020870161045f565b601f01601f19169190910160400192915050565b610344806105ff6000396000f3fe60806040523661001357610011610017565b005b6100115b610027610022610067565b610100565b565b606061004e83836040518060600160405280602781526020016102e860279139610124565b9392505050565b6001600160a01b03163b151590565b90565b600061009a7fa3f0ad74e5423aebfd80d3ef4346578335a9a72aeaee59ff6cb3582b35133d50546001600160a01b031690565b6001600160a01b0316635c60da1b6040518163ffffffff1660e01b8152600401602060405180830381865afa1580156100d7573d6000803e3d6000fd5b505050506040513d601f19601f820116820180604052508101906100fb919061023f565b905090565b3660008037600080366000845af43d6000803e80801561011f573d6000f35b3d6000fd5b60606001600160a01b0384163b6101915760405162461bcd60e51b815260206004820152602660248201527f416464726573733a2064656c65676174652063616c6c20746f206e6f6e2d636f6044820152651b9d1c9858dd60d21b60648201526084015b60405180910390fd5b600080856001600160a01b0316856040516101ac9190610298565b600060405180830381855af49150503d80600081146101e7576040519150601f19603f3d011682016040523d82523d6000602084013e6101ec565b606091505b50915091506101fc828286610206565b9695505050505050565b6060831561021557508161004e565b8251156102255782518084602001fd5b8160405162461bcd60e51b815260040161018891906102b4565b60006020828403121561025157600080fd5b81516001600160a01b038116811461004e57600080fd5b60005b8381101561028357818101518382015260200161026b565b83811115610292576000848401525b50505050565b600082516102aa818460208701610268565b9190910192915050565b60208152600082518060208401526102d3816040850160208701610268565b601f01601f1916919091016040019291505056fe416464726573733a206c6f772d6c6576656c2064656c65676174652063616c6c206661696c6564a2646970667358221220bc61ce4f88685c951a95cb7bfed614d33b5654c68109405136a19f703cf6140b64736f6c634300080f0033a3f0ad74e5423aebfd80d3ef4346578335a9a72aeaee59ff6cb3582b35133d50416464726573733a206c6f772d6c6576656c2064656c65676174652063616c6c206661696c65646d696e7450726f76696e63653a2073657474696e672070726f76696e636520746f206c6f6f6b7570206c697374360894a13ba1a3210667c828492db98dca3e2076cc3735a920a3ca505d382bbc4142434445464748494a4b4c4d4e4f505152535455565758595a6162636465666768696a6b6c6d6e6f707172737475767778797a303132333435363738392b2f416464726573733a206c6f772d6c6576656c2064656c65676174652063616c6c206661696c65643c7376672077696474683d27333530707827206865696768743d273335307078272076696577426f783d27302030203234203234272066696c6c3d276e6f6e652720786d6c6e733d27687474703a2f2f7777772e77332e6f72672f323030302f737667273e6d696e7450726f76696e63653a20616464696e672070726f76696e636520746f2070726f76696e636573206c697374a264697066735822122026633006229580afa79ae66a4db0a6b1436f1bcecf27ce8fc01a0a9e2e0e8bcb64736f6c634300080f0033496e697469616c697a61626c653a20636f6e747261637420697320616c726561",
    "sourcePath": "c:/Users/keutm/source/repos/web3/KingsGoldContracts/contracts/ProvinceManager.sol",
    "compiler": {
        "name": "solc",
        "version": "0.8.15+commit.e14f2714"
    },
    "functionHashes": {
        "DEFAULT_ADMIN_ROLE()": "a217fddf",
        "EVENT_ROLE()": "7a827855",
        "MINTER_ROLE()": "d5391393",
        "OWNER_ROLE()": "e58378bb",
        "PAUSER_ROLE()": "e63ab1e9",
        "PROVINCE_ROLE()": "68d3f1dc",
        "TEMPORARY_MINTER_ROLE()": "325c4681",
        "UPGRADER_ROLE()": "f72c0d8b",
        "USER_ROLE()": "13119161",
        "VASSAL_ROLE()": "c8817c92",
        "addSvgResouces(uint256,string)": "d042499f",
        "approve(address,uint256)": "095ea7b3",
        "balanceOf(address)": "70a08231",
        "beaconAddress()": "7e2ec6d0",
        "burn(uint256)": "42966c68",
        "contains(address)": "5dbe47e8",
        "continent()": "ac66f895",
        "getApproved(uint256)": "081812fc",
        "initialize(address)": "c4d66de8",
        "isApprovedForAll(address,address)": "e985e9c5",
        "mintProvince(string,address)": "7a32f18d",
        "name()": "06fdde03",
        "ownerOf(uint256)": "6352211e",
        "pause()": "8456cb59",
        "paused()": "5c975abb",
        "provinces(uint256)": "f7ef0f29",
        "proxiableUUID()": "52d1902d",
        "safeMint(address)": "40d097c3",
        "safeTransferFrom(address,address,uint256)": "42842e0e",
        "safeTransferFrom(address,address,uint256,bytes)": "b88d4fde",
        "setApprovalForAll(address,bool)": "a22cb465",
        "setContinent(address)": "6cceb04b",
        "setProvinceBeacon(address)": "55fc86ca",
        "setUserAccountManager(address)": "47caea0f",
        "supportsInterface(bytes4)": "01ffc9a7",
        "symbol()": "95d89b41",
        "tokenByIndex(uint256)": "4f6ccce7",
        "tokenOfOwnerByIndex(address,uint256)": "2f745c59",
        "tokenURI(uint256)": "c87b56dd",
        "totalSupply()": "18160ddd",
        "transferFrom(address,address,uint256)": "23b872dd",
        "unpause()": "3f4ba83a",
        "upgradeTo(address)": "3659cfe6",
        "upgradeToAndCall(address,bytes)": "4f1ef286",
        "userAccountManager()": "81576dee"
    },
    "gasEstimates": {
        "creation": {
            "codeDepositCost": "4273800",
            "executionCost": "infinite",
            "totalCost": "infinite"
        },
        "external": {
            "DEFAULT_ADMIN_ROLE()": "328",
            "EVENT_ROLE()": "329",
            "MINTER_ROLE()": "239",
            "OWNER_ROLE()": "261",
            "PAUSER_ROLE()": "283",
            "PROVINCE_ROLE()": "241",
            "TEMPORARY_MINTER_ROLE()": "307",
            "UPGRADER_ROLE()": "327",
            "USER_ROLE()": "330",
            "VASSAL_ROLE()": "328",
            "addSvgResouces(uint256,string)": "infinite",
            "approve(address,uint256)": "infinite",
            "balanceOf(address)": "2673",
            "beaconAddress()": "2382",
            "burn(uint256)": "infinite",
            "contains(address)": "infinite",
            "continent()": "2382",
            "getApproved(uint256)": "4783",
            "initialize(address)": "infinite",
            "isApprovedForAll(address,address)": "infinite",
            "mintProvince(string,address)": "infinite",
            "name()": "infinite",
            "ownerOf(uint256)": "2711",
            "pause()": "infinite",
            "paused()": "2404",
            "provinces(uint256)": "2631",
            "proxiableUUID()": "infinite",
            "safeMint(address)": "infinite",
            "safeTransferFrom(address,address,uint256)": "infinite",
            "safeTransferFrom(address,address,uint256,bytes)": "infinite",
            "setApprovalForAll(address,bool)": "infinite",
            "setContinent(address)": "infinite",
            "setProvinceBeacon(address)": "infinite",
            "setUserAccountManager(address)": "infinite",
            "supportsInterface(bytes4)": "infinite",
            "symbol()": "infinite",
            "tokenByIndex(uint256)": "6760",
            "tokenOfOwnerByIndex(address,uint256)": "5014",
            "tokenURI(uint256)": "infinite",
            "totalSupply()": "2338",
            "transferFrom(address,address,uint256)": "infinite",
            "unpause()": "infinite",
            "upgradeTo(address)": "infinite",
            "upgradeToAndCall(address,bytes)": "infinite",
            "userAccountManager()": "2404"
        },
        "internal": {
            "getSvg()": "infinite"
        }
    }
}